:03000000020BDA16
:0C0BDA00787FE4F6D8FD75810F020BA6B1
:100BC3008F088D09EB640170047B018006E4FBADA3
:070BD30009AF08120AC1225C
:100AC100EB7022EF14600F14601114601324037093
:100AD10031EDF4528022EDF4529022EDF452A02235
:100AE100EDF452B022EF14600E14600F1460102464
:100AF10003700FED428022ED429022ED42A022EDE3
:030B010042B022DD
:100B8800EF14600E14600F1460102403700FED62F0
:0E0B98008022ED629022ED62A022ED62B0227A
:100B3900EF14601014601314601624037016E58016
:100B49005DFE8010E5905DFE800AE5A05DFE8004F3
:0C0B5900E5B05DFEEE60037F01227F002E
:010B6500226D
:100B6600E47B78FAF9F8120A018F0F8E0E8D0D8C40
:100B76000C780C74FF120AA3EC4D4E4F60030080F4
:010B8600F07E
:010B8700224B
:100B0400E41209067BFB7AED796B783F1208001238
:100B140009448F0B8E0A8D098C08780874FF120A19
:100B2400A3EC4D4E4F600D7FE87E037D007C0012E8
:040B34000B6680E6E6
:010B3800229A
:100BA600E4FB7D017F01120BC37D017F01120B88DF
:0D0BB6007F647E007D007C00120B0480EC4B
:10080000EC4D6011E8497017ED33EC3304600DE4F2
:10081000FCFFFEFD22E933E8330470F80209B01250
:10082000097B58046009E4CC248150062850090251
:1008300009BA2840030209B7C0E0EB4A7044B98006
:1008400006D0E0FB0209A6EF4E701CBD8008EBFF4E
:10085000EAFEE9FD80EBE98DF0A4FEE5F00208E98F
:10086000E9CDF9EAFEEBFFEF89F0A4FCE5F0CE89D3
:10087000F0A42EFFE435F0CD89F0A42DFEE435F090
:100880008067EF4E7005BD80D780C3EF8BF0A4ACBE
:10089000F0EE8BF0A42CFCE435F0F8EF8AF0A42CF9
:1008A000E5F038FCE433CB8DF0A42CFCE5F03BF80C
:1008B000EE8AF0A42CFCE5F038F8E433CF89F0A4FC
:1008C0002CFCE5F038CF3400CE89F0A42FFFE5F002
:1008D0003EFEE433C98DF0A42EFEE5F039CD8AF05A
:1008E000A42FFFE5F03EFEE43DFD33D0E0FB5007D2
:1008F0000BBB000F0209BAEC2CFCEF33FFEE33FE0A
:06090000ED33FD02099237
:1009060075F020800E75F010800575F0087D007E6C
:10091600007F003392D530D503120A93EC33401092
:10092600EF33FFEE33FEED33FDEC33FCD5F0ED2275
:0E093600E5F0247EA2D513CC92E7CDCEFF22B1
:10094400EDD2E7CD33EC3392D524814006E4FFFEAB
:10095400FDFC22FCE4CFCECDCC24E0501174FF800A
:10096400EDC3CC13CCCD13CDCE13CECF13CF0470A7
:07097400F030D5DE020A930A
:10097B00E9D2E7C933E833F892D5EDD2E7CD33ECC2
:07098B0033FC5002B2D5223B
:10099200EC30E7100FBF000C0EBE00080DBD0004C6
:1009A2000BEB6014A2D5EB13FCED92E7FD2274FF72
:1009B200FCFDFEFF22E480F8A2D574FF13FC7D80CB
:0309C200E480EFDF
:1009C50075F008758200EF2FFFEE33FECD33CDCCE9
:1009D50033CCC58233C5829BED9AEC99E58298406C
:1009E5000CF582EE9BFEED9AFDEC99FC0FD5F0D649
:1009F500E4CEFBE4CDFAE4CCF9A88222B800C1B973
:100A05000059BA002DEC8BF084CFCECDFCE5F0CBB0
:100A1500F97818EF2FFFEE33FEED33FDEC33FCEBE9
:100A250033FB10D703994004EB99FB0FD8E5E4F9A4
:100A3500FA227818EF2FFFEE33FEED33FDEC33FC91
:100A4500C933C910D7059BE99A4007EC9BFCE99A85
:100A5500F90FD8E0E4C9FAE4CCFB2275F010EF2FCA
:100A6500FFEE33FEED33FDCC33CCC833C810D707CA
:100A75009BEC9AE899400AED9BFDEC9AFCE899F805
:0E0A85000FD5F0DAE4CDFBE4CCFAE4C8F92298
:0E0A9300C3E49FFFE49EFEE49DFDE49CFC2274
:100AA1007401FF3395E0FEFDFC080808E6CF2FF640
:100AB10018E6CE3EF618E6CD3DF618E6CC3CF62219
:00000001FF
