:03000000020901F1
:0C090100787FE4F6D8FD7581450204B74C
:1005AC004D432D3531206C6962726172790043685C
:1005BC0061724C4344204578616D706C6500204439
:1005CC006973706C6179204F4E2F4F464620002086
:1005DC00437572736F72204F4E2F4F46462020008A
:1005EC0020437572736F7220426C696E6B20200011
:1004B700752201752301752401752502E4F521C311
:1004C700E5219404748094805024E52125E02426B6
:1004D700F87601AF21A8077404088002C333D8FC5B
:1004E700FFE52125E02427F8A607052180D17B0019
:1004F7007A007922750C107D0212033E7B007A0088
:100507007922750C01E4FD120853750BFF750C0574
:10051700750DAC7B007A0079221207CF7B007A0039
:100527007922E4F50C7D01120853750BFF750C0554
:10053700750DBA7B007A0079221207CF7FE87E0318
:090547007D007C0012079A80FE81
:08033E008B088A09890A8D0B66
:1003460090000FE4120220900010744012022090D8
:100356000012E50C120220E50C2440900013120254
:10036600201201C8FF9000011201E1FDE4FB120812
:10037600B7AB08AA09A90A9000021201E1FF900092
:10038600031201E1FDE4FB1208B7E4F50DC3E50D28
:100396009404748094805027E50D75F002A4AB0890
:1003A600250AF9E50935F0FA9000041201E1FF90FB
:1003B60000051201E1FDE4FB1208B7050D80CE7FB2
:1003C600647E007D007C0012079A1205507F057E30
:1003D600007D007C0012079A1205507F647E007D26
:1003E600007C001208771205507F647E007D007C39
:1003F60000120877AB08AA09A90A7D02120558ABB4
:1004060008AA09A90A90000C7420120220D3E50B51
:10041600940174809480400EE9240CF9E43AFA12AF
:1004260001C84408800EAB08E50A240CF9E4350936
:10043600FA1201C812020EAB08AA09A90A90000C0A
:100446001201E1FD12072AAB08AA09A90A90000DBC
:10045600740C120220C003C002C001AB08AA09A98D
:100466000A90000D1201E1FDD001D002D00312075F
:100476002AAB08AA09A90A7D0112072A7F0A7E006B
:100486007D007C0012079AAB08AA09A90A90000E03
:100496007406120220C003C002C001AB08AA09A953
:1004A6000A90000E1201E1FDD001D002D00302072E
:0104B6002A1B
:10063F008B1A8A1B891C9000021201E1FF900003A4
:10064F001201E1FD7B011205FC7F647E007D007CC1
:10065F0000120877AB1AAA1BA91C9000021201E125
:0D066F00FF9000031201E1FDE4FB0205FC19
:08055000AB08AA09A90A7D030A
:080558008B158A1689178D1816
:10056000E4F519C3E5199404748094805035E519B5
:1005700075F002A4AB152517F9E51635F0FA9000D1
:10058000041201E1FF9000051201E1FDAE19A80679
:10059000E518088002C313D8FC5401FB1205FC05C2
:0C05A0001980C0AB15AA16A91702063F6F
:08072A008D118B0E8A0F89105E
:100732001201C8FF9000011201E1FDE4FB1205FC69
:10074200E511C4540FFDE511540FF512AB0EAA0FBB
:10075200A910120558AB0EAA0FA910AD1202055826
:080762008D138B108A1189121E
:10076A001201C8FF9000011201E1FD7B011205FC94
:10077A00E513C4540FFDE513540FF514AB10AA1179
:10078A00A912120558AB10AA11A912AD14020558E4
:100853008B088A09890AE9240FF9E43AFA7E00E948
:100863002DF9EE3AFA1201C8250C4480FDAA09A914
:040873000A02072A44
:1008E1007D0112072A7F027E007D007C0002079AAB
:1008F1007D0212072A7F027E007D007C0002079A9A
:10067C008B3A8A3B893CED700EE9240DF9E43AFA89
:10068C001201C854FB8010AB3AE53C240DF9E4355B
:10069C003BFA1201C8440412020EAB3AAA3BA93C25
:0A06AC0090000D1201E1FD02072A83
:1006B6008B3D8A3E893FED700EE9240DF9E43AFA46
:1006C6001201C854FD8010AB3DE53F240DF9E43519
:1006D6003EFA1201C8440212020EAB3DAA3EA93FE1
:0A06E60090000D1201E1FD02072A49
:1006F0008B408A418942ED700EE9240DF9E43AFA03
:100700001201C854FE8010AB40E542240DF9E435D7
:1007100041FA1201C8440112020EAB40AA41A9429B
:0A07200090000D1201E1FD02072A0E
:05090D007D1802072A1D
:050912007D1C02072A14
:10082E008B438A448945E9240DF9E43AFA1201C84A
:10083E0054FD12020EAB43AA44A94590000D1201BD
:05084E00E1FD02072A94
:0607CF008B088A09890A6B
:1007D500E4F50EF50FAB0BAA0CA90D850F82850E5E
:1007E500831201E1FF6014FDAB08AA09A90A1207EB
:0B07F50062050FE50F70DE050E80DAD4
:0108000022D5
:1008CE008B358A3689378D387F017E007D007C001E
:0308DE0002079A74
:1008B7008F0E8D0FEB640170047B018006E4FBADA6
:0708C7000FAF0E1205FC2229
:1005FC00EB7022EF14600F1460111460132403705D
:10060C0031EDF4528022EDF4529022EDF452A022FE
:10061C00EDF452B022EF14600E14600F146010242D
:10062C0003700FED428022ED429022ED42A022EDAC
:03063C0042B022A7
:10089900EF14600E14600F1460102403700FED62E2
:0E08A9008022ED629022ED62A022ED62B0226C
:10080100EF14601014601314601624037016E58051
:100811005DFE8010E5905DFE800AE5A05DFE80042E
:0C082100E5B05DFEEE60037F01227F0069
:01082D0022A8
:10087700E47B78FAF9F812027E8F208E1F8D1E8C8A
:100887001D781D74FF120320EC4D4E4F600300804E
:01089700F070
:01089800223D
:10079A00E41201097BFB7AED796B783F12000312B0
:1007AA0001478F118E108D0F8C0E780E74FF120375
:1007BA0020EC4D4E4F600D7FE87E037D007C0012D9
:0407CA00087780E646
:0107CE002208
:10000300EC4D6011E8497017ED33EC3304600DE4F7
:10001300FCFFFEFD22E933E8330470F80201B3125A
:10002300017E58046009E4CC24815006285009025B
:1000330001BD2840030201BAC0E0EB4A7044B98015
:1000430006D0E0FB0201A9EF4E701CBD8008EBFF58
:10005300EAFEE9FD80EBE98DF0A4FEE5F00200EC99
:10006300E9CDF9EAFEEBFFEF89F0A4FCE5F0CE89D8
:10007300F0A42EFFE435F0CD89F0A42DFEE435F095
:100083008067EF4E7005BD80D780C3EF8BF0A4ACC3
:10009300F0EE8BF0A42CFCE435F0F8EF8AF0A42CFE
:1000A300E5F038FCE433CB8DF0A42CFCE5F03BF811
:1000B300EE8AF0A42CFCE5F038F8E433CF89F0A401
:1000C3002CFCE5F038CF3400CE89F0A42FFFE5F007
:1000D3003EFEE433C98DF0A42EFEE5F039CD8AF05F
:1000E300A42FFFE5F03EFEE43DFD33D0E0FB5007D7
:1000F3000BBB000F0201BDEC2CFCEF33FFEE33FE14
:06010300ED33FD02019541
:1001090075F020800E75F010800575F0087D007E71
:10011900007F003392D530D503120310EC33401021
:10012900EF33FFEE33FEED33FDEC33FCD5F0ED227A
:0E013900E5F0247EA2D513CC92E7CDCEFF22B6
:10014700EDD2E7CD33EC3392D524814006E4FFFEB0
:10015700FDFC22FCE4CFCECDCC24E0501174FF800F
:10016700EDC3CC13CCCD13CDCE13CECF13CF0470AC
:07017700F030D5DE02031099
:10017E00E9D2E7C933E833F892D5EDD2E7CD33ECC7
:07018E0033FC5002B2D52240
:10019500EC30E7100FBF000C0EBE00080DBD0004CB
:1001A5000BEB6014A2D5EB13FCED92E7FD2274FF77
:1001B500FCFDFEFF22E480F8A2D574FF13FC7D80D0
:0301C500E480EFE4
:1001C800BB010689828A83E0225002E722BBFE0235
:0901D800E32289828A83E4932268
:1001E100BB010CE58229F582E5833AF583E02250D3
:1001F10006E92582F8E622BBFE06E92582F8E2221D
:0D020100E58229F582E5833AF583E4932236
:10020E00BB010689828A83F0225002F722BBFE01CF
:02021E00F322C9
:10022000F8BB010DE58229F582E5833AF583E8F014
:10023000225006E92582C8F622BBFE05E92582C8C0
:02024000F222A8
:1002420075F008758200EF2FFFEE33FECD33CDCC73
:1002520033CCC58233C5829BED9AEC99E5829840F6
:100262000CF582EE9BFEED9AFDEC99FC0FD5F0D6D3
:10027200E4CEFBE4CDFAE4CCF9A88222B800C1B9FD
:100282000059BA002DEC8BF084CFCECDFCE5F0CB3B
:10029200F97818EF2FFFEE33FEED33FDEC33FCEB74
:1002A20033FB10D703994004EB99FB0FD8E5E4F92F
:1002B200FA227818EF2FFFEE33FEED33FDEC33FC1C
:1002C200C933C910D7059BE99A4007EC9BFCE99A10
:1002D200F90FD8E0E4C9FAE4CCFB2275F010EF2F55
:1002E200FFEE33FEED33FDCC33CCC833C810D70755
:1002F2009BEC9AE899400AED9BFDEC9AFCE899F890
:0E0302000FD5F0DAE4CDFBE4CCFAE4C8F92222
:0E031000C3E49FFFE49EFEE49DFDE49CFC22FE
:10031E007401FF3395E0FEFDFC080808E6CF2FF6CA
:10032E0018E6CE3EF618E6CD3DF618E6CC3CF622A3
:00000001FF
