:030000000207C62E
:0C07C600787FE4F6D8FD7581390204B795
:1007A00042696E617279204D616B6572004D432D17
:0307B000353100E0
:1004B700752201752301752401752502E4F521C311
:1004C700E5219404748094805024E52125E02426B6
:1004D700F87601AF21A8077404088002C333D8FC5B
:1004E700FFE52125E02427F8A607052180D17B0019
:1004F7007A007922750C107D0212033E7B007A0088
:100507007922750C02E4FD120725750BFF750C07A0
:10051700750DA07B007A0079221206C67B007A004F
:100527007922750C057D01120725750BFF750C07E0
:0E053700750DAD7B007A0079221206C680FE9B
:08033E008B088A09890A8D0B66
:1003460090000FE4120220900010744012022090D8
:100356000012E50C120220E50C2440900013120254
:10036600201201C8FF9000011201E1FDE4FB120713
:1003760089AB08AA09A90A9000021201E1FF9000C0
:10038600031201E1FDE4FB120789E4F50DC3E50D57
:100396009404748094805027E50D75F002A4AB0890
:1003A600250AF9E50935F0FA9000041201E1FF90FB
:1003B60000051201E1FDE4FB120789050D80CE7FE1
:1003C600647E007D007C001206911205457F057E45
:1003D600007D007C001206911205457F647E007D3B
:1003E600007C001207491205457F647E007D007C73
:1003F60000120749AB08AA09A90A7D0212054DABEE
:1004060008AA09A90A90000C7420120220D3E50B51
:10041600940174809480400EE9240CF9E43AFA12AF
:1004260001C84408800EAB08E50A240CF9E4350936
:10043600FA1201C812020EAB08AA09A90A90000C0A
:100446001201E1FD120621AB08AA09A90A90000DC6
:10045600740C120220C003C002C001AB08AA09A98D
:100466000A90000D1201E1FDD001D002D003120660
:1004760021AB08AA09A90A7D011206217F0A7E007E
:100486007D007C00120691AB08AA09A90A90000E0D
:100496007406120220C003C002C001AB08AA09A953
:1004A6000A90000E1201E1FDD001D002D00302062F
:0104B6002124
:1005E4008B1A8A1B891C9000021201E1FF90000300
:1005F4001201E1FD7B011205A17F647E007D007C78
:1006040000120749AB1AAA1BA91C9000021201E1AF
:0D061400FF9000031201E1FDE4FB0205A1CF
:08054500AB08AA09A90A7D0315
:08054D008B158A1689178D1821
:10055500E4F519C3E5199404748094805035E519C0
:1005650075F002A4AB152517F9E51635F0FA9000DC
:10057500041201E1FF9000051201E1FDAE19A80684
:10058500E518088002C313D8FC5401FB1205A10528
:0C0595001980C0AB15AA16A9170205E4D6
:080621008D118B0E8A0F891068
:100629001201C8FF9000011201E1FDE4FB1205A1CE
:10063900E511C4540FFDE511540FF512AB0EAA0FC5
:10064900A91012054DAB0EAA0FA910AD1202054D46
:080659008D138B108A11891228
:100661001201C8FF9000011201E1FD7B011205A1F9
:10067100E513C4540FFDE513540FF514AB10AA1183
:10068100A91212054DAB10AA11A912AD1402054D04
:100725008B088A09890AE9240FF9E43AFA7E00E977
:100735002DF9EE3AFA1201C8250C4480FDAA09A943
:040745000A0206217D
:0606C6008B088A09890A75
:1006CC00E4F50EF50FAB0BAA0CA90D850F82850E68
:1006DC00831201E1FF6014FDAB08AA09A90A1206F6
:0B06EC0059050FE50F70DE050E80DAE7
:0106F70022E0
:1007B3008B358A3689378D387F017E007D007C003A
:0307C3000206919A
:100789008F0E8D0FEB640170047B018006E4FBADD5
:070799000FAF0E1205A122B3
:1005A100EB7022EF14600F146011146013240370B8
:1005B10031EDF4528022EDF4529022EDF452A0225A
:1005C100EDF452B022EF14600E14600F1460102489
:1005D10003700FED428022ED429022ED42A022ED08
:0305E10042B02203
:10076B00EF14600E14600F1460102403700FED6211
:0E077B008022ED629022ED62A022ED62B0229B
:1006F800EF14601014601314601624037016E5805C
:100708005DFE8010E5905DFE800AE5A05DFE800438
:0C071800E5B05DFEEE60037F01227F0073
:0107240022B2
:10074900E47B78FAF9F812027E8F208E1F8D1E8CB9
:100759001D781D74FF120320EC4D4E4F600300807D
:01076900F09F
:01076A00226C
:10069100E41201097BFB7AED796B783F12000312BA
:1006A10001478F118E108D0F8C0E780E74FF12037F
:1006B10020EC4D4E4F600D7FE87E037D007C0012E3
:0406C100074980E67F
:0106C5002212
:10000300EC4D6011E8497017ED33EC3304600DE4F7
:10001300FCFFFEFD22E933E8330470F80201B3125A
:10002300017E58046009E4CC24815006285009025B
:1000330001BD2840030201BAC0E0EB4A7044B98015
:1000430006D0E0FB0201A9EF4E701CBD8008EBFF58
:10005300EAFEE9FD80EBE98DF0A4FEE5F00200EC99
:10006300E9CDF9EAFEEBFFEF89F0A4FCE5F0CE89D8
:10007300F0A42EFFE435F0CD89F0A42DFEE435F095
:100083008067EF4E7005BD80D780C3EF8BF0A4ACC3
:10009300F0EE8BF0A42CFCE435F0F8EF8AF0A42CFE
:1000A300E5F038FCE433CB8DF0A42CFCE5F03BF811
:1000B300EE8AF0A42CFCE5F038F8E433CF89F0A401
:1000C3002CFCE5F038CF3400CE89F0A42FFFE5F007
:1000D3003EFEE433C98DF0A42EFEE5F039CD8AF05F
:1000E300A42FFFE5F03EFEE43DFD33D0E0FB5007D7
:1000F3000BBB000F0201BDEC2CFCEF33FFEE33FE14
:06010300ED33FD02019541
:1001090075F020800E75F010800575F0087D007E71
:10011900007F003392D530D503120310EC33401021
:10012900EF33FFEE33FEED33FDEC33FCD5F0ED227A
:0E013900E5F0247EA2D513CC92E7CDCEFF22B6
:10014700EDD2E7CD33EC3392D524814006E4FFFEB0
:10015700FDFC22FCE4CFCECDCC24E0501174FF800F
:10016700EDC3CC13CCCD13CDCE13CECF13CF0470AC
:07017700F030D5DE02031099
:10017E00E9D2E7C933E833F892D5EDD2E7CD33ECC7
:07018E0033FC5002B2D52240
:10019500EC30E7100FBF000C0EBE00080DBD0004CB
:1001A5000BEB6014A2D5EB13FCED92E7FD2274FF77
:1001B500FCFDFEFF22E480F8A2D574FF13FC7D80D0
:0301C500E480EFE4
:1001C800BB010689828A83E0225002E722BBFE0235
:0901D800E32289828A83E4932268
:1001E100BB010CE58229F582E5833AF583E02250D3
:1001F10006E92582F8E622BBFE06E92582F8E2221D
:0D020100E58229F582E5833AF583E4932236
:10020E00BB010689828A83F0225002F722BBFE01CF
:02021E00F322C9
:10022000F8BB010DE58229F582E5833AF583E8F014
:10023000225006E92582C8F622BBFE05E92582C8C0
:02024000F222A8
:1002420075F008758200EF2FFFEE33FECD33CDCC73
:1002520033CCC58233C5829BED9AEC99E5829840F6
:100262000CF582EE9BFEED9AFDEC99FC0FD5F0D6D3
:10027200E4CEFBE4CDFAE4CCF9A88222B800C1B9FD
:100282000059BA002DEC8BF084CFCECDFCE5F0CB3B
:10029200F97818EF2FFFEE33FEED33FDEC33FCEB74
:1002A20033FB10D703994004EB99FB0FD8E5E4F92F
:1002B200FA227818EF2FFFEE33FEED33FDEC33FC1C
:1002C200C933C910D7059BE99A4007EC9BFCE99A10
:1002D200F90FD8E0E4C9FAE4CCFB2275F010EF2F55
:1002E200FFEE33FEED33FDCC33CCC833C810D70755
:1002F2009BEC9AE899400AED9BFDEC9AFCE899F890
:0E0302000FD5F0DAE4CDFBE4CCFAE4C8F92222
:0E031000C3E49FFFE49EFEE49DFDE49CFC22FE
:10031E007401FF3395E0FEFDFC080808E6CF2FF6CA
:10032E0018E6CE3EF618E6CD3DF618E6CC3CF622A3
:00000001FF
